{"abi":[{"type":"constructor","inputs":[{"name":"_operator","type":"address","internalType":"address"}],"stateMutability":"nonpayable"},{"type":"function","name":"OPERATOR_THRESHOLD","inputs":[],"outputs":[{"name":"","type":"uint256","internalType":"uint256"}],"stateMutability":"view"},{"type":"function","name":"domainDeployed","inputs":[{"name":"","type":"bytes32","internalType":"bytes32"}],"outputs":[{"name":"","type":"bool","internalType":"bool"}],"stateMutability":"view"},{"type":"function","name":"domainTotals","inputs":[{"name":"","type":"bytes32","internalType":"bytes32"}],"outputs":[{"name":"","type":"uint256","internalType":"uint256"}],"stateMutability":"view"},{"type":"function","name":"getDomainTotal","inputs":[{"name":"domainId","type":"string","internalType":"string"}],"outputs":[{"name":"","type":"uint256","internalType":"uint256"}],"stateMutability":"view"},{"type":"function","name":"getStake","inputs":[{"name":"domainId","type":"string","internalType":"string"},{"name":"staker","type":"address","internalType":"address"}],"outputs":[{"name":"","type":"uint256","internalType":"uint256"}],"stateMutability":"view"},{"type":"function","name":"isDomainDeployed","inputs":[{"name":"domainId","type":"string","internalType":"string"}],"outputs":[{"name":"","type":"bool","internalType":"bool"}],"stateMutability":"view"},{"type":"function","name":"operator","inputs":[],"outputs":[{"name":"","type":"address","internalType":"address"}],"stateMutability":"view"},{"type":"function","name":"operatorWithdraw","inputs":[{"name":"domainId","type":"string","internalType":"string"},{"name":"to","type":"address","internalType":"address"}],"outputs":[],"stateMutability":"nonpayable"},{"type":"function","name":"stake","inputs":[{"name":"domainId","type":"string","internalType":"string"}],"outputs":[],"stateMutability":"payable"},{"type":"function","name":"stakes","inputs":[{"name":"","type":"bytes32","internalType":"bytes32"},{"name":"","type":"address","internalType":"address"}],"outputs":[{"name":"","type":"uint256","internalType":"uint256"}],"stateMutability":"view"},{"type":"function","name":"withdraw","inputs":[{"name":"domainId","type":"string","internalType":"string"},{"name":"amount","type":"uint256","internalType":"uint256"}],"outputs":[],"stateMutability":"nonpayable"},{"type":"event","name":"OperatorWithdrawn","inputs":[{"name":"domainHash","type":"bytes32","indexed":true,"internalType":"bytes32"},{"name":"domainId","type":"string","indexed":false,"internalType":"string"},{"name":"to","type":"address","indexed":true,"internalType":"address"},{"name":"amount","type":"uint256","indexed":false,"internalType":"uint256"}],"anonymous":false},{"type":"event","name":"Staked","inputs":[{"name":"domainHash","type":"bytes32","indexed":true,"internalType":"bytes32"},{"name":"domainId","type":"string","indexed":false,"internalType":"string"},{"name":"staker","type":"address","indexed":true,"internalType":"address"},{"name":"amount","type":"uint256","indexed":false,"internalType":"uint256"}],"anonymous":false},{"type":"event","name":"Withdrawn","inputs":[{"name":"domainHash","type":"bytes32","indexed":true,"internalType":"bytes32"},{"name":"domainId","type":"string","indexed":false,"internalType":"string"},{"name":"staker","type":"address","indexed":true,"internalType":"address"},{"name":"amount","type":"uint256","indexed":false,"internalType":"uint256"}],"anonymous":false},{"type":"error","name":"BelowThreshold","inputs":[]},{"type":"error","name":"DomainAlreadyDeployed","inputs":[]},{"type":"error","name":"InsufficientStake","inputs":[]},{"type":"error","name":"NotOperator","inputs":[]},{"type":"error","name":"TransferFailed","inputs":[]},{"type":"error","name":"ZeroAmount","inputs":[]}],"bytecode":{"object":"0x60a060405234801561000f575f80fd5b506040516109f13803806109f183398101604081905261002e9161003f565b6001600160a01b031660805261006c565b5f6020828403121561004f575f80fd5b81516001600160a01b0381168114610065575f80fd5b9392505050565b60805161096661008b5f395f818161018c015261026d01526109665ff3fe608060405260043610610099575f3560e01c806346f45b8d1161006257806346f45b8d14610168578063570ca7351461017b5780638be12dad146101c6578063a7b9828f146101f1578063d33f8faa14610224578063fe08ab9314610243575f80fd5b80620d33e41461009d5780631f1b5b68146100e057806321e2731c1461010957806330b39a621461012a5780633ff18fa114610149575b5f80fd5b3480156100a8575f80fd5b506100cb6100b7366004610738565b60026020525f908152604090205460ff1681565b60405190151581526020015b60405180910390f35b3480156100eb575f80fd5b506100fb670de0b6b3a764000081565b6040519081526020016100d7565b348015610114575f80fd5b506101286101233660046107af565b610262565b005b348015610135575f80fd5b506101286101443660046107ff565b6103f0565b348015610154575f80fd5b506100cb610163366004610847565b610584565b610128610176366004610847565b6105ae565b348015610186575f80fd5b506101ae7f000000000000000000000000000000000000000000000000000000000000000081565b6040516001600160a01b0390911681526020016100d7565b3480156101d1575f80fd5b506100fb6101e0366004610738565b60016020525f908152604090205481565b3480156101fc575f80fd5b506100fb61020b366004610886565b5f60208181529281526040808220909352908152205481565b34801561022f575f80fd5b506100fb61023e366004610847565b61069d565b34801561024e575f80fd5b506100fb61025d3660046107af565b6106c1565b336001600160a01b037f000000000000000000000000000000000000000000000000000000000000000016146102ab57604051631f0853c160e21b815260040160405180910390fd5b5f6102b68484610706565b5f8181526002602052604090205490915060ff16156102e8576040516303dc24a160e01b815260040160405180910390fd5b5f81815260016020526040902054670de0b6b3a764000081101561031e57604051625713a160e91b815260040160405180910390fd5b5f82815260026020526040808220805460ff19166001179055516001600160a01b0385169083908381818185875af1925050503d805f811461037b576040519150601f19603f3d011682016040523d82523d5f602084013e610380565b606091505b50509050806103a2576040516312171d8360e31b815260040160405180910390fd5b836001600160a01b0316837fe1609306cb3b99baefaf7c5e191300805059d303c9a58cefdcd8698007d7a1d98888866040516103e0939291906108b0565b60405180910390a3505050505050565b805f0361041057604051631f2a200560e01b815260040160405180910390fd5b5f61041b8484610706565b5f8181526002602052604090205490915060ff161561044d576040516303dc24a160e01b815260040160405180910390fd5b5f81815260208181526040808320338452909152902054821115610484576040516378de4a6960e11b815260040160405180910390fd5b5f81815260208181526040808320338452909152812080548492906104aa9084906108fb565b90915550505f81815260016020526040812080548492906104cc9084906108fb565b90915550506040515f90339084908381818185875af1925050503d805f8114610510576040519150601f19603f3d011682016040523d82523d5f602084013e610515565b606091505b5050905080610537576040516312171d8360e31b815260040160405180910390fd5b336001600160a01b0316827f8c87a29e7720caf128730c6696d65e76a7ff2c80fa78fd5c7e9fc8c468109e92878787604051610575939291906108b0565b60405180910390a35050505050565b5f60025f6105928585610706565b815260208101919091526040015f205460ff1690505b92915050565b345f036105ce57604051631f2a200560e01b815260040160405180910390fd5b5f6105d98383610706565b5f8181526002602052604090205490915060ff161561060b576040516303dc24a160e01b815260040160405180910390fd5b5f818152602081815260408083203384529091528120805434929061063190849061090e565b90915550505f818152600160205260408120805434929061065390849061090e565b9091555050604051339082907f9b0f678daaa8ea4ba38e3d846908070c79ab5617c0e0a440b4a81029b3ba022690610690908790879034906108b0565b60405180910390a3505050565b5f60015f6106ab8585610706565b81526020019081526020015f2054905092915050565b5f805f6106ce8686610706565b81526020019081526020015f205f836001600160a01b03166001600160a01b031681526020019081526020015f205490509392505050565b5f828260405160200161071a929190610921565b60405160208183030381529060405280519060200120905092915050565b5f60208284031215610748575f80fd5b5035919050565b5f8083601f84011261075f575f80fd5b50813567ffffffffffffffff811115610776575f80fd5b60208301915083602082850101111561078d575f80fd5b9250929050565b80356001600160a01b03811681146107aa575f80fd5b919050565b5f805f604084860312156107c1575f80fd5b833567ffffffffffffffff8111156107d7575f80fd5b6107e38682870161074f565b90945092506107f6905060208501610794565b90509250925092565b5f805f60408486031215610811575f80fd5b833567ffffffffffffffff811115610827575f80fd5b6108338682870161074f565b909790965060209590950135949350505050565b5f8060208385031215610858575f80fd5b823567ffffffffffffffff81111561086e575f80fd5b61087a8582860161074f565b90969095509350505050565b5f8060408385031215610897575f80fd5b823591506108a760208401610794565b90509250929050565b60408152826040820152828460608301375f606084830101525f6060601f19601f8601168301019050826020830152949350505050565b634e487b7160e01b5f52601160045260245ffd5b818103818111156105a8576105a86108e7565b808201808211156105a8576105a86108e7565b818382375f910190815291905056fea2646970667358221220342c9146b0e8a71c9ed1dcbf7128a63d9db14b0da838a016a3614c5aaa343f7a64736f6c63430008180033","linkReferences":{}},"methodIdentifiers":{"OPERATOR_THRESHOLD()":"1f1b5b68","domainDeployed(bytes32)":"000d33e4","domainTotals(bytes32)":"8be12dad","getDomainTotal(string)":"d33f8faa","getStake(string,address)":"fe08ab93","isDomainDeployed(string)":"3ff18fa1","operator()":"570ca735","operatorWithdraw(string,address)":"21e2731c","stake(string)":"46f45b8d","stakes(bytes32,address)":"a7b9828f","withdraw(string,uint256)":"30b39a62"},"id":0}